:100000000C942A000C9447000C9447000C94470071
:100010000C9447000C9447000C94AA000C944700E1
:100020000C9447000C9447000C9447000C94470034
:100030000C9447000C9447000C9447000C94470024
:100040000C9447000C9447000C9447000C94470014
:100050000C94470011241FBECFE5D4E0DEBFCDBF16
:1000600010E0A0E6B0E0EEEFF1E002C005900D92E6
:10007000AA36B107D9F710E0AAE6B0E001C01D9298
:10008000AD37B107E1F70E9469000C94FD000C94B4
:10009000000087B38FEF87BB8CB59DB5805C994F0F
:1000A0009BBD8ABD81E08EBD89B7806189BF0895FF
:1000B00062957295707F7627607F7627F894E82F97
:1000C000F0E0EE0FFF1FE359FF4F718360837894D8
:1000D00008950E944900789480E09FE590936E0017
:1000E00080936D009093700080936F0090937200E6
:1000F00080937100909374008093730090937600C6
:1001000080937500909378008093770090937A00A5
:100110008093790090937C0080937B00C8EED3E0BD
:100120000F2EF9E1FF2EF02D08EE13E080E0BE0166
:100130000E9458008F2DEFE3FCE93197F1F700C0E2
:1001400000008150C1F7E296F7E0C13DDF0770F390
:10015000E801ECCF1F920F920FB60F9211242F934C
:100160003F938F939F93EF93FF938AB59BB5209115
:100170006A00E0E6F0E0E20FF11D208130916800B6
:100180003323B9F038B3232B28BBE0916A00F0E0A9
:10019000EE0FFF1FE359FF4F20813181280F391FD8
:1001A0003BBD2ABD805C934690936C0080936B00AE
:1001B00013C088B32095282328BB80916A008F5FE5
:1001C00080936A00883011F410926A0080916B006D
:1001D00090916C009BBD8ABD9091680081E0892759
:1001E00080936800FF91EF919F918F913F912F91A4
:0E01F0000F900FBE0F901F901895F894FFCF40
:0A01FE0001020408102040800100F7
:00000001FF
